:020000040000FA
:10000000F8210010F90000000101000003010000C8
:1000100005010000070100000901000000000000C8
:100020000000000000000000000000000B010000C4
:100030000D010000000000000F0100001101000090
:100040001301000013010000130100001301000060
:100050001301000013010000130100001301000050
:100060001301000013010000130100001301000040
:100070001301000000000000130100001301000044
:100080001301000013010000130100001301000020
:100090001301000013010000130100001301000010
:1000A0001301000013010000130100001301000000
:1000B00013010000130100001301000013010000F0
:1000C00013010000130100001301000013010000E0
:1000D00013010000130100001301000013010000D0
:1000E00013010000DFF80CD000F0F0F800480047E2
:1000F0004D140000F82100100648804706480047CC
:10010000FEE7FEE7FEE7FEE7FEE7FEE7FEE7FEE7C7
:10011000FEE7FEE7E5010000E50000005A48006840
:1001200010F4807F21D15948006810F0010F09D1E7
:100130005548006800F01F005549B1FBF0F05549E3
:1001400008604EE05448006810F0400F03D10020D2
:100150005049086045E04C48006800F01F004C49D9
:10016000B1FBF0F04B4908603BE04C48006810F4EC
:10017000807F03D100204749086032E0434800688F
:1001800010F0010F12D14548006800F01F0000F187
:1001900001003F4900FB01F04149D1F8041101F091
:1001A0001F01B0FBF1F03B4908601AE03A480068D3
:1001B00010F0400F03D100203649086011E03748A5
:1001C000006800F01F0000F10100314900FB01F060
:1001D0003349D1F8041101F01F01B0FBF1F02D49B2
:1001E0000860704720202C49086000BF2A4800683A
:1001F00010F0400FFAD00120244908604FF00900A8
:100200002749C1F884004FF00100264908604FF0EB
:10021000AA00254908604FF05500086000BF1F483C
:10022000006810F4806FFAD02320204908604FF056
:1002300001001B49C1F8A0004FF0AA001C4908604A
:100240004FF055001649C1F8AC0000BF19480068CE
:1002500010F4806FFAD001200B4908601049C1F8F2
:100260000801154908604FF002001449086014485D
:10027000144908604FF48070134908604FF4A0409F
:10028000074908607047000004C10F400CC10F40CF
:10029000001BB70000000010A0C10F4088C00F4035
:1002A00000C00F4080C00F408CC00F40A4C00F4062
:1002B000ACC00F40A8C00F4000C10F40A8C10F4004
:1002C000DE872804C4C00F40C8C10F40064C074D4C
:1002D00006E0E06840F0010394E807009847103416
:1002E000AC42F6D3FFF702FF081500002815000006
:1002F000704700000000000000000000FFFFFFFF4B
:1003000013B5044601231A4601A9204600F006FE53
:100310001CBD38B504460020009001231A466946EA
:10032000204600F044FE9DF8000038BD70B506463A
:100330000D462C4604E014F8011B3046FFF7E0FFA1
:1003400020780028F7D170BD70B504460D462946C7
:100350002046FFF7EBFFE2A12046FFF7E7FF70BD65
:100360002DE9F04105460C460A2094FBF0F100FB14
:100370001140C6B20A2094FBF0F00A2190FBF1F282
:1003800001FB1200C7B2642094FBF0F090FBF1F285
:1003900001FB120000F0FF0808F13000C1B228464E
:1003A000FFF7AEFF07F13000C1B22846FFF7A8FF04
:1003B00006F13000C1B22846FFF7A2FFBDE8F08188
:1003C0002DE9F04705460C460A2094FBF0F100FBAE
:1003D0001140C6B20A2094FBF0F00A2190FBF1F222
:1003E00001FB1200C7B2642094FBF0F090FBF1F225
:1003F00001FB120000F0FF084FF47A7094FBF0F05C
:1004000090FBF1F201FB120000F0FF0942F21070C4
:1004100094FBF0F090FBF1F201FB120000F0FF0AF8
:100420000AF13000C1B22846FFF76AFF09F1300037
:10043000C1B22846FFF764FF08F13000C1B2284678
:10044000FFF75EFF07F13000C1B22846FFF758FF03
:1004500006F13000C1B22846FFF752FFBDE8F08731
:100460002DE9F34F83B00C460A20B4FBF0F100FBFA
:100470001140C5B20A20B4FBF0F00A21B0FBF1F242
:1004800001FB1200C6B26420B4FBF0F0B0FBF1F245
:1004900001FB1200C7B24FF47A70B4FBF0F0B0FB6E
:1004A000F1F201FB120000F0FF0842F21070B4FB01
:1004B000F0F0B0FBF1F201FB120000F0FF098948F7
:1004C000B4FBF0F0B0FBF1F201FB120000F0FF0A08
:1004D0008548B4FBF0F0B0FBF1F201FB120000F034
:1004E000FF0B8248B4FBF0F0B0FBF1F201FB12000D
:1004F000C0B202907E48B4FBF0F0B0FBF1F201FB19
:100500001200C0B201907A48B4FBF0F0B0FBF1F2F7
:1005100001FB1200C0B2009000983030C1B20398C5
:10052000FFF7EEFE01983030C1B20398FFF7E8FE06
:1005300002983030C1B20398FFF7E2FE0BF13000B1
:10054000C1B20398FFF7DCFE0AF13000C1B2039894
:10055000FFF7D6FE09F13000C1B20398FFF7D0FED5
:1005600008F13000C1B20398FFF7CAFE07F130006E
:10057000C1B20398FFF7C4FE06F13000C1B2039880
:10058000FFF7BEFE05F13000C1B20398FFF7B8FED9
:1005900005B0BDE8F08F2DE9F04107460D4655A1A5
:1005A0003846FFF7C3FE012600BFB00045FA00F051
:1005B00000F00F04092C02DD04F1370001E004F122
:1005C0003000C1B23846FFF79BFE3000A6F10101B2
:1005D000CEB2EAD1BDE8F0812DE9F04107460D46E3
:1005E00044A13846FFF7A2FE032600BFB00045FA3B
:1005F00000F000F00F04092C02DD04F1370001E0E7
:1006000004F13000C1B23846FFF77AFE3000A6F19F
:100610000101CEB2EAD1BDE8F0812DE9F0410746F3
:100620000D4634A13846FFF781FE072600BFB00013
:1006300025FA00F000F00F04092C02DD04F1370068
:1006400001E004F13000C1B23846FFF759FE300036
:10065000A6F10101CEB2EAD1BDE8F0811CB50122BC
:100660000221002000F013FA01220321002000F0F3
:100670000EFA684600F03AFC4FF4E130009069460B
:100680001D4800F039FB01211B4800F0E8FBAFF2E8
:1006900063301A490860AFF24F3019490860AFF271
:1006A0009F3018490860AFF2111017490860AFF287
:1006B000D70016490860AFF29D0015490860AFF2F7
:1006C0005F3014490860AFF2073013490860AFF299
:1006D0006F2012490860AFF2C530114908601CBD97
:1006E0000A0D0000A086010040420F00809698008D
:1006F00000E1F5053078000000C000400400001063
:10070000080000100C0000101C0000102000001059
:100710002400001010000010140000101800001039
:10072000280000102DE9F04104460D460121080380
:1007300000F057F9002020604FF40017012000F06E
:10074000D4F8064605EB8510B6FBF0F0461E47EAE6
:1007500006272760BDE8F08110B50446206820F424
:100760000010206000214FF4805000F03AF910BDD5
:1007700001463A4850F82120C2F30B107047026836
:1007800022F0E0620260026842EA016202607047A1
:10079000026822F48032026019B1026842F48032A9
:1007A00002607047026822F40012026019B1026808
:1007B00042F4001202607047026822F00062026098
:1007C00019B1026842F000620260704710B5C36858
:1007D00001248C40A343C36022B1C46801238B4031
:1007E0001C43C46010BD10B5012A05D10368012463
:1007F0008C402343036004E0036801248C40A3433E
:10080000036010BD024602F1100050F82130C3F31E
:100810000B10704710B503460C4603F1100050F85A
:10082000241012B101F0004101E001F0804109B152
:10083000012010BD0020FCE70146486870470246D1
:100840000B46516813B101F0004101E001F0804115
:1008500009B1012070470020FCE700001040034070
:1008600030B1012807D0022808D0032818D108E0A9
:10087000774A116016E0774A116013E0764A1160FA
:1008800010E0764A126822F01F02754BC3F8082167
:100890001A46D2F8082142EA0102C3F8082101E011
:1008A00000BFFEE700BF7047014631B1012909D002
:1008B00002290CD0032914D10EE0654A126802F017
:1008C0001F0010E0634A126802F01F000BE0624A4A
:1008D000126802F0010006E05F4A126802F01F0091
:1008E00001E000BFFEE700BF70472DE9F041804600
:1008F0005C480068C0F30120032837D15A480068DB
:1009000010F0030002D0012826D112E055480068FB
:1009100000F01F0000F10100544900FB01F65048AF
:10092000D0F8880000F01F0000F1010000FB01F783
:1009300012E04C48006800F01F0000F101004B4934
:1009400000FB01F64648D0F8880000F01F0000F1D7
:10095000010000FB01F700BF00BF3D48006810F434
:10096000807F01D03D4611E035460FE03E480068EB
:1009700010F0030002D0012806D102E03B4E002710
:1009800002E03A4E002700BF00BF3546B8F1000F25
:1009900006D0B8F1010F0DD0B8F1020F1DD113E050
:1009A0000020FFF781FF03460BB9002401E0B5FBEF
:1009B000F3F412E00120FFF777FF03460BB90024A0
:1009C00001E0B5FBF3F408E00120FFF76DFF0346FB
:1009D0000BB92C4600E06C0800BF00BF2046BDE804
:1009E000F081012907D1224A126842EA00021C4B19
:1009F000C3F8C42007E031B91D4A126822EA000298
:100A0000174BC3F8C420704700201A49086030BF54
:100A100070470420184908604FF008001049C1F8D9
:100A2000C00030BF70470420134908604FF0090030
:100A30000B49C1F8C00030BF704704200E49086060
:100A40004FF003000649C1F8C00030BF70470000F6
:100A500004C10F40A8C10F4000C10F4008C10F40A2
:100A600000C00F4088C00F400CC10F40001BB700F2
:100A7000C4C00F40C0C00F4010ED00E010B50246EA
:100A8000002001EB42134E4C04EB830010BD2DE916
:100A9000F04106460F461546002439463046FFF71A
:100AA000EDFF0446206800F007002060206828431E
:100AB0002060BDE8F0812DE9F04106460F4615465D
:100AC000002439463046FFF7D9FF0446206820F05D
:100AD00018002060206828432060BDE8F0812DE9DF
:100AE000F04106460F461546002439463046FFF7CA
:100AF000C5FF044625B9206820F02000206003E0EF
:100B0000206840F020002060BDE8F0812DE9F04130
:100B100006460F461546002439463046FFF7AEFF1D
:100B2000044625B9206820F04000206003E02068DA
:100B300040F040002060BDE8F0812DE9F04106461C
:100B40000F461546002439463046FFF797FF044606
:100B500025B9206820F08000206003E0206840F084
:100B600080002060BDE8F0812DE9F04106460F4687
:100B70001546002439463046FFF780FF04462068BA
:100B800020F440702060206828432060BDE8F08198
:100B90002DE9F04106460F461546002439463046F9
:100BA000FFF76CFF044625B9206820F480602060C0
:100BB00003E0206840F480602060BDE8F081000020
:100BC00000C002402DE9F04F87B004460D460020DA
:100BD0000690834604900027012003900020029095
:100BE00081468246F84801900120FFF77EFE05907D
:100BF00005980009059001263CE04FF0000830E020
:100C00000598704306EB0801B0FBF1F004900498DE
:100C1000B0FBF5F70498B0FBF5F105FB1100B0EB64
:100C2000550F00D97F1C022F19D9B7F5803F16D276
:100C30000498B0FBF7FBAB4502D8A5EB0B0A01E02B
:100C4000ABEB050A0198824509D20396CDF80880DE
:100C5000B946CDF804A0BAF1000F00D104E008F1C4
:100C60000108B8F10F0FCBD900BFBAF1000F00D1C6
:100C700002E0761C0F2EC0D900BF05EB45006421B1
:100C8000B0FBF1F10198814232D9D048844216D1AB
:100C9000207B40F0800020734FEA1920207184F8F7
:100CA0000090207B00F07F002073F021039801EA80
:100CB0000010029901F00F010843A06216E0207BAA
:100CC00040F0800020734FEA1920207184F80090D2
:100CD000207B00F07F002073F021039801EA0010D0
:100CE000029901F00F01084384F8280001200690C2
:100CF000069807B0BDE8F08F70B504460E46B448BC
:100D0000844203D101210820FFF76BFEAF488442E3
:100D100003D101211020FFF764FEAE48844203D1C5
:100D200001210806FFF75DFEAB48844203D1012193
:100D30004806FFF756FEA548844221D107202072BD
:100D40000020207200E02578207D10F0010FFAD1FC
:100D5000802084F8300000BF207D10F0200FFBD0F1
:100D6000002084F83000606020732062207484F8D2
:100D70004C0084F8540084F85000257E257D18E04E
:100D8000072020720020207200E02578207D10F0DE
:100D9000010FFAD1802084F8300000BF207D10F0D0
:100DA000200FFBD0002084F83000606020732062A8
:100DB000257D8948844202D1002084F82400204601
:100DC0003168FFF7FFFE8148844203D1207B00F0A9
:100DD000C00502E0207B00F0C005707930B1012829
:100DE00006D0022807D0032808D108E000BF09E098
:100DF00045F0010506E045F0020503E000BF45F0BF
:100E0000030500BF00BF3079C0B145F00805307957
:100E1000012806D0022806D0032807D004280BD1C9
:100E200007E000BF09E045F0100506E045F02005A9
:100E300003E045F0300500E000BF00BFB07928B105
:100E4000012802D145F0040501E000BF00BF00BF4A
:100E50005E48844201D1257300E0257370BD0129ED
:100E600010D15A4A904206D190F8302042F08002C8
:100E700080F8302014E090F8302042F0800280F8B2
:100E800030200DE0514A904205D190F830200022E8
:100E900080F8302004E090F83020002280F83020E4
:100EA000704710B5044600212046FFF7D8FF484898
:100EB000844203D100210820FFF793FD4348844278
:100EC00003D100211020FFF78CFD4248844204D159
:100ED00000214FF08070FFF784FD3F48844204D129
:100EE00000214FF00070FFF77CFD10BD4FF416514C
:100EF0000160032141710021017181717047334A02
:100F0000904201D1017000E00170704701462F4806
:100F1000814201D1087870470878FCE72DE9F04F4D
:100F20000746894692469B464E465346BBF1010F03
:100F300023D100241EE04FF0FF3805E0B8F1000F88
:100F400000D105E0A8F10108387D10F0200FF5D0A0
:100F500000BFB8F1000F00D10EE0102507E016F831
:100F6000011B3846FFF7CBFF6D1E5B1E641C0DB1E5
:100F7000002BF4D1002BDED116E0002411E0387DE7
:100F800010F0200F00D10EE0102507E016F8011B2D
:100F90003846FFF7B4FF5B1E6D1E641C0DB1002BBD
:100FA000F4D1002BEBD100BF2046BDE8F08F2DE936
:100FB000F04305460F46904699463C464346B9F1F4
:100FC000010F22D100221DE0A08601000000014097
:100FD00000C000400080094000C009404FF0FF36CB
:100FE00002E006B904E0761E287D10F0010FF8D06B
:100FF00000BF06B908E02846FFF788FF04F8010B98
:101000005B1E521C002BE9D110E000220BE0287D72
:1010100010F0010F00D108E02846FFF777FF04F831
:10102000010B521C5B1E002BF1D100BF1046BDE826
:10103000F083E249884204D1017B41F04001017311
:1010400003E0017B41F040010173704730B50B466E
:10105000072B15D2DFE803F00406080A0C0E110076
:1010600001210DE002210BE0042109E0082107E045
:10107000802105E04FF4807102E04FF4007100BF61
:1010800000BF012A0AD1CD4CA04203D144680C43D1
:10109000446013E044680C4344600FE0C74CA04236
:1010A00006D1446840F28F358D432C40446005E002
:1010B000446840F207358D432C40446030BD014602
:1010C000BE48814201D1007D7047087DFCE70146A2
:1010D000886840F2CF32104070470146087D10F01A
:1010E000400F01D0002070470120FCE7024600209D
:1010F00040F00100CB7833B1012B06D0022B07D092
:10110000032B08D108E000BF09E040F0400006E0F2
:1011100040F0800003E000BF40F0C00000BF00BF0F
:101120004B78012B01D140F004000B78012B01D149
:1011300040F002008B78012B01D140F008009F4B5A
:101140009A4203D100F0CF03137202E000F0CF0304
:101150001372704700218170C170012101704170CC
:10116000704710B50B460021012A09D11C78012CCB
:1011700001D141F002015C78012C01D141F0040160
:101180008E4CA04215D1012A10D1047B44F080047A
:101190000473002404700471047B24F0800404733D
:1011A0001024846241F00104046218E00024046207
:1011B00015E0012A11D1047B44F08004047300245B
:1011C00004700471047B24F080040473102480F8FC
:1011D000284041F00104046201E00024046210BDD3
:1011E000764A904203D1026A0A43026202E0026A2E
:1011F0000A4302627047012906D190F8242042F088
:10120000020280F8242006E029B990F8242002F098
:101210003D0280F824207047012906D190F824204F
:1012200042F0010280F8242005E090F8242002F02A
:101230003E0280F82420704710B54C07A30E90F8AA
:10124000244024F0380243F00404224302F03F0417
:1012500080F8244010BD30B5002311B1012904D11C
:1012600001E0012302E0022300E000BF00BF012AE9
:1012700003D1047C1C43047404E0047CF3259D43E7
:101280002C40047430BD30B50B4623B1012B04D083
:10129000022B06D103E0102104E0402102E080216E
:1012A00000E000BF00BF012A03D1047C0C4304749A
:1012B00004E0047CF3258D432C40047430BD0146CA
:1012C000087E704702460020CB78012B0ED140F0FB
:1012D00010004B79012B01D140F020000B79012B3C
:1012E00001D140F00800CB7982F854300B78012B03
:1012F00001D140F001008B78012B04D140F00400B3
:101300008B7982F850304B780BB940F0020000F036
:101310003F0382F84C30137B43F03803137370475C
:10132000012906D190F84C2022F0020280F84C20CE
:1013300005E090F84C2042F0020280F84C20704703
:101340002DE9F0470446894692461F469FB1257B0A
:10135000A84628F0100884F80C800123524649461C
:101360002046FFF7DBFD064600BF207D10F0400F52
:10137000FBD025730BE00123524649462046FFF778
:10138000CDFD064600BF207D10F0400FFBD030465B
:10139000BDE8F08713B5044601231A4601A920468B
:1013A000FFF7CEFF1CBD70B504460D461646002360
:1013B000324629462046FFF7C3FF70BD00000140BA
:1013C00010B523492348244A1268904710BDFFF7FF
:1013D00045F9FFF7F5FF012219210020FFF757FB20
:1013E0001E491F48FFF79EF9002202211C48FFF703
:1013F000EDF9012202211A48FFF7F5F925E0012154
:101400001748FFF7BCF900BF012202211448FFF77B
:1014100001FA0028F8D002211148FFF7F3F9054638
:1014200010A10C480C4A1268904729460948144AF2
:101430001268904711A10748124A12689047002489
:1014400000E0641C10488442FBD3D8E7FFF7BFFFDD
:101450002C00001000C0004004000010400D0300EC
:10146000004003404144432076616C7565206F6EF7
:10147000206368616E6E656C20323A2000000000C7
:10148000180000100800001040420F0070B58C18C2
:1014900010F8015B15F0030201D110F8012B2B119C
:1014A00006D110F8013B03E010F8016B01F8016B65
:1014B000521EF9D1B3B110F8012B05F00C058A1AB0
:1014C0000C2D04D0A2EB851203F1020308E010F802
:1014D000015BA2EB0522F7E712F8015B01F8015B63
:1014E0005B1EF9D5A142D3D3002070BD02E008C82D
:1014F000121F08C1002AFAD17047002001E001C183
:10150000121F002AFBD170472815000000000010B0
:10151000F80100008C14000044160000F8010010CF
:1015200000200000FA140000000526001BB700018F
:10153000024D2A0110270A0D48656C6C6F204E5829
:10154000502053656D69636F6E647563746F727359
:10155000200A0D204144432064656D6F0C50110931
:10156000202D204D43553A204C50433137387813C5
:101570007014436F72653A2041524D20434F5254CC
:1015800045582D4D331A10176D6D756E6963617472
:1015900065207669613A20554152543001021B3072
:1015A0000A31313532303020627065300455736550
:1015B000692019776974682031322D62697420724C
:1015C00065736F6C7574696F6E20724110046F667D
:1015D000203210054B487A2C1B1013616420696E71
:1015E00020706F6C6C696E67206D6F6465463007A4
:1015F000546F2067657449201276616C75652061AF
:101600006E6420646973706C617980617F212B1036
:101610000875726E2074686543100474656E659079
:10162000116D6574657220746F2073656520686F35
:101630007746040A506368616E6765730A0D790224
:0416400000000000A6
:04000005000000E512
:00000001FF
