:020000040000FA
:1000000050080010F9000000010100000301000089
:1000100005010000070100000901000000000000C8
:100020000000000000000000000000000B010000C4
:100030000D010000000000000F0100001101000090
:100040001301000013010000130100001301000060
:100050001301000013010000130100001301000050
:100060001301000013010000130100001301000040
:100070001301000013010000130100001301000030
:100080001301000013010000130100001301000020
:100090001301000013010000130100001301000010
:1000A0001301000013010000130100001301000000
:1000B00013010000C90D000013010000130100002E
:1000C00013010000130100001301000013010000E0
:1000D00013010000130100001301000013010000D0
:1000E00013010000DFF80CD003F066F80048004769
:1000F000552B00005008001006488047064800476E
:10010000FEE7FEE7FEE7FEE7FEE7FEE7FEE7FEE7C7
:10011000FEE7FEE7BB050000E500000070B5054600
:100120000C4635B1012D09D0022D0CD0032D1ED166
:100130000EE03948046000F0E3F81AE03748046044
:1001400000F0DEF815E03648046000F0D9F810E061
:100150003448006820F01F003349C1F80801084600
:10016000D0F8080140EA0400C1F8080101E000BF2E
:10017000FEE700BF70BD014631B1012907D0022959
:1001800008D003290CD108E02848006870472848A7
:100190000068FBE727480068F8E727480068F5E7AC
:1001A00000BFFEE7012907D1244A126842EA000293
:1001B0001D4BC3F8C42007E031B9204A126822EA77
:1001C0000002194BC3F8C42070474FF000001C49CF
:1001D000086030BF70474FF004001A4908604FF0C4
:1001E00008001149C1F8C00030BF70474FF004004B
:1001F000144908604FF009000B49C1F8C00030BF36
:1002000070474FF004000F4908604FF003000649A3
:10021000C1F8C00030BF704704C10F40A8C10F40F3
:1002200000C10F4008C10F4000C00F400000001087
:1002300004000010080000100C000010C4C00F40A3
:10024000C0C00F4010ED00E02DE9F05F0546002032
:1002500092469B4688460646814640241CE0284636
:1002600041464746224600F030F852465B46801A27
:10027000994111D310461946224600F017F82D1A5D
:1002800067EB0107B8464F4622460120002100F0E7
:100290000DF838184E418146201EA4F10104DEDC21
:1002A000484631462A464346BDE8F09F202A04DBF3
:1002B000203A00FA02F1002070479140C2F1200379
:1002C00020FA03F3194390407047202A04DB203AB8
:1002D00021FA02F00021704721FA02F3D040C2F166
:1002E0002002914008431946704702E008C8121FD7
:1002F00008C1002AFAD1704770470000FFFFFFFFD6
:10030000DC48006810F4807F52D1DA480830006879
:1003100010F0010F1ED1D748006800F01F00D64929
:10032000B1FBF0F0D5490860D548D0F8A80100F03D
:100330001F00D149B1FBF0F0D2490860D2480068F3
:1003400000F0010000F10100CB49B1FBF0F0CF4912
:100350000860C0E0C7489C30006810F0400F08D12A
:100360004FF00000C5490860C6490860C7490860E9
:10037000B1E0C048006800F01F00BF49B1FBF0F0D9
:10038000BE490860BE48D0F8A80100F01F00BA4975
:10039000B1FBF0F0BB490860BB48006800F0010009
:1003A00000F10100B449B1FBF0F0B849086092E0F7
:1003B000B5487838006810F4807F08D14FF000000D
:1003C000AE490860AF490860B049086083E0A948B9
:1003D0000830006810F0010F37D1AD48006800F018
:1003E0001F0000F10100A44900FB01F0A449D1F86D
:1003F000041101F01F01B0FBF1F0A0490860A4480E
:10040000006800F01F0000F101009B4900FB01F0B3
:10041000A049096801F01F01B0FBF1F0994908609B
:100420009B48006800F01F0000F10100924900FBAA
:1004300001F09349D1F8001101F0010101F101012E
:10044000B0FBF1F09149086045E092480838006837
:1004500010F0400F08D14FF000008849086089492A
:1004600008608A49086036E08948006800F01F008B
:1004700000F10100804900FB01F08149D1F804112D
:1004800001F01F01B0FBF1F07C4908608048006872
:1004900000F01F0000F10100774900FB01F07D49E9
:1004A000096801F01F01B0FBF1F076490860784857
:1004B000006800F01F0000F101006F4900FB01F02F
:1004C0006F49D1F8001101F0010101F10101B0FB08
:1004D000F1F06E4908606748001D006810F4807FE5
:1004E00042D06448001D006810F01F0004D00428AA
:1004F00007D0062832D105E04FF0000066490860B9
:1005000031E000BF5B480830006810F0010F12D0E6
:100510005F48006800F01F0000F10100564900FB31
:1005200001F05749D1F8081101F01F01B0FBF1F0BB
:100530005949086011E05648006800F01F0000F1BA
:1005400001004D4900FB01F04D49D1F8081101F0BF
:100550001F01B0FBF1F05049086004E04FF00000CB
:100560004D49086000BF27E04248001D006810F4B4
:10057000007F1DD03F480830006810F0010F0BD0FD
:100580004648006800F01F0000F101003A4900FBF6
:1005900001F0414908600FE03D48006800F01F008D
:1005A00000F10100344900FB01F03B49086003E021
:1005B0004FF000003849086070474FF0210038497B
:1005C000086000BF3648006810F0400FFAD04FF0C6
:1005D0000100344908604FF009002949C1F884003E
:1005E0004FF00100304908604FF0AA002F49086021
:1005F0004FF05500086000BF2548006810F4806F78
:10060000FAD04FF023002A4908604FF001001C493E
:10061000C1F8A0004FF0AA00264908604FF055002D
:100620001749C1F8AC0000BF1C48006810F4806F87
:10063000FAD040F201100F49086040F20120104941
:10064000C1F808014FF001000F4908604FF00200A7
:10065000104908601848194908604FF4807018491B
:10066000086045F23A00064908604FF0000015495D
:100670000860704704C10F40001BB7000000001065
:1006800000C00F400400001000C10F40080000101F
:1006900088C00F40A8C10F400C000010A8C00F4038
:1006A000A0C10F400CC10F4080C00F408CC00F4054
:1006B000A4C00F40ACC00F40DE872804C4C00F4068
:1006C000C8C10F4008ED00E010B502464FF000032E
:1006D000184601EB42139B4C04EB8303184610BDF4
:1006E0002DE9F04106460F4615464FF0000004463E
:1006F00039463046FFF7E8FF0446206800F007005F
:100700002060206840EA05002060BDE8F0812DE906
:10071000F04106460F4615464FF0000004463946A4
:100720003046FFF7D1FF0446206820F01800206013
:10073000206840EA05002060BDE8F0812DE9F04125
:1007400006460F4615464FF000000446394630462F
:10075000FFF7BAFF044625B9206820F0200020608A
:1007600003E0206840F020002060BDE8F0812DE922
:10077000F04106460F4615464FF000000446394644
:100780003046FFF7A1FF044625B9206820F040005D
:10079000206003E0206840F040002060BDE8F08168
:1007A0002DE9F04106460F4615464FF0000004467D
:1007B00039463046FFF788FF044625B9206820F007
:1007C0008000206003E0206840F080002060BDE8E9
:1007D000F0812DE9F04106460F4615464FF0000026
:1007E000044639463046FFF76FFF0446206820F480
:1007F00040702060206840EA05202060BDE8F0815C
:100800002DE9F04106460F4615464FF0000004461C
:1008100039463046FFF758FF044625B9206820F4D2
:100820008060206003E0206840F480602060BDE8C4
:10083000F0812DE9F04105460C4617464FF00000C7
:10084000064680460DB90C2C1BD01DB90D2C01D1CC
:10085000012000E000202DB91A2C03DC172C01DB4D
:10086000012100E000210843012D03D11E2C01D1FC
:10087000012100E00021084303D1012D04D11F2CE8
:1008800002D14FF0010001E04FF00000C0B28046FD
:10089000B8F1000F01D1BDE8F08121462846FFF7ED
:1008A00013FF0646306820F0800030601FB93068C2
:1008B00040F08000306000BFEDE72DE9F0410546D3
:1008C0000F4616464FF0000004460DB91A2F01D00E
:1008D000BDE8F08139462846FFF7F6FE0446206859
:1008E00020F4803020601EB1206840F48030206009
:1008F00000BFEDE72DE9F04106460D4617464FF0E3
:10090000000004462EB9072D05D0082D03D0092D6F
:1009100001D0BDE8F08129463046FFF7D5FE0446F8
:10092000206840F080002060206820F48070206003
:100930001FB9206840F4807020602068206000BFEC
:10094000E7E7000000C0024001464FF00000024609
:100950000AE0FF48D0F88000086001F10400014679
:1009600002F10100C0B20246082AF2DB0020704703
:1009700001464FF00000024609E0F64B0868186097
:1009800001F10400014602F10100C0B20246082A4A
:10099000F3DB00207047EE48C06B44F21A7140EA66
:1009A0000100EB49C8637047E948C06B44F21A7113
:1009B00020EA0100E649C8637047E548C06B48F289
:1009C0002A7140EA0100E249C8637047E048C06B01
:1009D00048F22A7120EA0100DD49C863704770B50A
:1009E00003460C464FF00000014604B970BD34E0E8
:1009F000D748406B014611F0040F0BD041F00400C2
:100A0000D34EB0634FF00000F0604FF0FF30B060A5
:100A10000846EBE711F0010F17D041F00100CC4E72
:100A2000B0633046C06800F03F05012D03D0292D8A
:100A300001D00C2D07D14FF00000C54EF0604FF0F3
:100A4000FF30B0600AE00846D0E711F0400F04D054
:100A500041F04000BE4EB06300E0C9E700BFBC48B3
:100A6000006900F03F0098420BD0012B09D0292BE0
:100A700007D0022B05D0092B03D04FF0FF300146E1
:100A8000B4E7C2B1012C08D1B148406910604FF001
:100A9000000050609060D0600DE0022C0BD1AC489B
:100AA00040691060AA4880695060A948C069906098
:100AB000A748006AD060002098E7F0B504460D46CC
:100AC0004FF00007384609E04FF00007DFF880C21A
:100AD000CCF80C7046F40067CCF838709C4F7E6BF5
:100AE00016F4006FF0D14FF0000102E001F10107B0
:100AF0003946FF29FAD904F03F0747EA000738468C
:100B00001AB920F0C00738460AE0012A03D140F0A4
:100B10004007384604E0022A02D140F0C0073846B8
:100B20001BB140F48077384602E020F480773846E5
:100B300040F480673846864FBD60F860F0BD2DE90F
:100B4000F0430746884614461D46DDF81C904FF0DA
:100B50000003224641463846FFF7AFFF05B934B1DE
:100B60002A4621463846FFF73AFF064601E06FF075
:100B700001063046BDE8F0832DE9F04185B004461A
:100B80004FF0FF3080467448007810B9734807680A
:100B900001E04FF480374FF4005528E06C48806B3B
:100BA00040F045006A4988634FF0000001AB4FF008
:100BB0000102394600904FF00D00FFF7C0FF0646D6
:100BC0001EB14FF0FF3080460EE0019810F4807F98
:100BD00003D16FF00400804606E00CB1019820605C
:100BE000002005B0BDE8F081A5F101000546002D0B
:100BF000D4D14046F5E718B54FF0FF30044617E072
:100C00006846FFF7B9FF00B113E0009810F4807F49
:100C100003D16FF0040004460AE00098C0F34320BB
:100C2000042803D06FF00300044601E0002018BD43
:100C3000E6E700BF2046FAE74549496B084610F051
:100C4000010F03D04FF00101414A916310F0040FEE
:100C500003D04FF004013E4A916310F0400F03D0DF
:100C60004FF040013A4A916310F0800F03D04FF0EB
:100C70008001374A916310F4006F03D04FF4006194
:100C8000334A916370473249496B084610F0020FAE
:100C900003D04FF002012E4A916310F0080F03D0E9
:100CA0004FF008012A4A916310F0100F03D04FF063
:100CB0001001274A916310F0200F03D04FF020015C
:100CC000234A916310F4007F03D04FF40071204A4F
:100CD0009163704700B51E48406B024612F4807F56
:100CE00004D04FF480701A49886300BD12F4806FFD
:100CF0000AD04FF4806016498863FFF755FE4FF025
:100D0000000017490860F0E700BFEEE710B5104893
:100D1000406B044614F4804F33D014F4804F11D04C
:100D20001048006800B910BD0E4909680E4A1268E3
:100D300011440846FFF71CFE0B48006800F1200034
:100D40000949086008480068B0F5007F3AD10DE015
:100D500000000C4080000C4028000010240000100F
:100D600010000010140000101C0000104FF00000D4
:100D7000FA490860FA48C06B20F48040F849C8631B
:100D800020E014F4004F1DD014F4004F11D0F548AA
:100D9000006800B9C7E7F3490968F34A12681144CB
:100DA0000846FFF7D1FDF048006800F12000EE4949
:100DB0000860ED480068B0F5007F03D14FF00000F7
:100DC000E949086000BFAEE710B5E548406B04464E
:100DD00040F23A20044202D0FFF755FF10BD14F450
:100DE000A06F02D0FFF776FFF8E7E048044202D098
:100DF000FFF78CFFF2E740F6C500044202D0FFF790
:100E00001BFFEBE700BFE9E710B54FF00003194601
:100E1000012803D141F05903194604E0022802D108
:100E200041F001031946CE4B5B6823F0FF03CC4C25
:100E3000636023465B6841F4807443EA0403C84C52
:100E400063604FF0000202E002F101031A46102A2B
:100E5000FAD310BD2DE9F04185B04FF0FF30804648
:100E6000C348007810B9C348056801E04FF0000599
:100E70004FF0140424E0002001AB01222946009029
:100E80003720FFF75CFE06461EB14FF0FF3080466C
:100E90000AE0019810F0200F03D04FF000008046C8
:100EA00010E06FF0040080464FF00000074602E0BB
:100EB00007F101000746202FFAD3A4F101000446F0
:100EC000002CD8D100BF404605B0BDE8F0812DE927
:100ED000F04185B005464FF0FF3080464FF02000CE
:100EE000074631E0FFF7B6FF10BB002001AB01223F
:100EF000294600900620FFF722FE04461CB14FF061
:100F0000FF30804614E0019810F4807F03D16FF029
:100F1000040080460CE00198C0F34320042803D06D
:100F20006FF00300804603E0002005B0BDE8F081CB
:100F30004FF00000064602E006F101000646202EB2
:100F4000FAD3A7F101000746002FCBD14046ECE7CA
:100F500030B504464FF00000054602E005F10100FF
:100F60000546102DFAD334B97D48406820F400605E
:100F70007B49486007E0012C05D17948406840F47E
:100F80000060774948600A20FFF7A1FF10B14FF0D9
:100F9000FF3030BD0020FCE7F0B585B04FF0FF30EA
:100FA00007464FF40070064627E0002001AB0122FF
:100FB000714900901046FFF7C2FD044614F0040F7B
:100FC00003D06FF0020007460BE0019810F0004FCD
:100FD00003D16FF00200074603E04FF00000074620
:100FE0000DE04FF00000054602E005F10100054666
:100FF000202DFAD3A6F101000646002ED5D100BF60
:10100000384605B0F0BD012806D15549096841F0C0
:101010004001534A116005E05149096801F083011C
:101020004F4A116070472DE9F04385B081464FF07B
:10103000FF308046504840EA877007464FF4007002
:10104000064638E00020FFF7DEFF4FF000000446C0
:1010500002E004F101000446B4F5405FF9D3FFF764
:10106000F9FE5FEA00081AD101AB0122394600906F
:101070002920FFF764FD054615F0040F03D06FF03B
:10108000020080460BE0019810F0004F03D16FF092
:101090000200804603E04FF0000080460DE04FF074
:1010A0000000044602E004F101000446202CFAD3BB
:1010B000A6F101000646002EC4D100BF404605B08F
:1010C000BDE8F0832DE9F04785B04FF0FF30824650
:1010D0004FF0010007464FF0AA00804648EA07207B
:1010E00081464FF01400064630E0002001AB01229B
:1010F000494600900820FFF722FD044614F0040F33
:1011000003D06FF00200824614E00198C0B240455F
:1011100003D04FF0FF3082460CE00198C0F3072067
:10112000B84203D06FF00100824603E04FF00000A8
:1011300082460DE04FF00000054602E005F1010097
:101140000546202DFAD3A6F101000646002ECCD18B
:1011500000BF504605B0BDE8F08700001C0000103D
:1011600000000C40180000102000001000C40F0008
:1011700028000010240000100080FF0000B50023AC
:101180001A4619461846FFF798FC002000BD30B5F6
:101190004FF0FF3004464FF0FF00FF490870FFF7A3
:1011A000EDFF10B14FF0FF3030BD0020FFF72BFFF7
:1011B0004FF0000502E005F101000546B5F5405F7E
:1011C000F9D3FFF77FFF0446A01C01D12046EBE7CF
:1011D00054B90120FFF727FF040005D1EE4908703C
:1011E000084690F90000DFE754B10020FFF71BFF2D
:1011F000040005D1E8490870084690F90000D3E7DB
:10120000BCB10120FFF7FFFE4FF00000054602E0F1
:1012100005F101000546B5F5405FF9D3FFF7BCFEC7
:1012200038B94FF00100DC490870084690F9000019
:10123000BAE7D94890F90000B6E770B505464FF017
:10124000FF00D5490870D548006840F08050D44967
:10125000C1F8C400D348406810F4807F05D0D1485D
:10126000406820F48070CF494860CE48006810F094
:10127000020F03D04FF00000CA4908604FF000048D
:1012800002E004F101000446B4F5805FF9D34FF0A9
:101290000000C449C8634FF0020211464FF001003C
:1012A000FFF71EFA022203210120FFF719FA02229A
:1012B00005210120FFF714FA022206210120FFF781
:1012C0000FFA022207210120FFF70AFA02220B215E
:1012D0000120FFF705FA02220C210120FFF700FA96
:1012E0003DB9B148006820F00800AD49C1F8A0013F
:1012F00006E0AD48006840F00800A949C1F8A00127
:101300006FF06040A74948624FF00000C860C862B3
:1013100040F2FF7088634FF00200086000BFA148F0
:10132000006810F0020FFAD04FF00000044602E00F
:1013300004F101000446FF2CFAD90120FFF764FDF7
:101340009848006840F00100964908604FF000009E
:10135000044602E004F101000446B4F5005FF9D34D
:101360004FF01D004FF0010101FA00F14FEA501259
:101370004FF0E02303EB8202C2F8001100BFFFF739
:1013800006FF06464FF0000070BD834890F900004C
:101390007047F0B585B004464FF40070074642E050
:1013A000002001AB0222014600901046FFF7C7FB68
:1013B000054615F0040F2AD134B301984FEA1060A6
:1013C00020700198C0F30F2060800198207102986E
:1013D000A06003984FEA10602073DDE903104FEA24
:1013E000106061F31F2020610498C0F30450207541
:1013F0000498C0F30B20E0820498C0F346002076E6
:10140000049800F001006076002005B0F0BD4FF0B8
:101410000000064602E006F101000646202EFAD33F
:10142000A7F101000746002FBAD1F81EEDE72DE91C
:10143000FC414FF0FF3080465748007810B94FF01C
:10144000000601E04FF480364FF0200435E0002024
:1014500001AB0122314600900320FFF770FB0546E7
:1014600015F0040F03D06FF00200804619E00198D8
:10147000C0F3002018B96FF00400804611E0019815
:10148000C0F34320022803D06FF00300804608E039
:1014900001986FF30F00454908604FF00000BDE868
:1014A000FC814FF00000074602E007F1010007460B
:1014B000202FFAD3A4F101000446002CC7D14046E6
:1014C000EDE73A48006870472DE9F04185B00446E1
:1014D0003148007810B93548076801E04FF480378B
:1014E0004FF020052CE02F48806B40F045002D493F
:1014F00088634FF0000001AB4FF0020239460090C4
:101500004FF00900FFF71BFB064666B93CB1019896
:101510002060029860600398A0600498E06000205A
:1015200005B0BDE8F0814FF00000804602E008F110
:1015300001008046B8F1200FF9D3A5F1010005465E
:10154000002DD0D1681EEBE72DE9F04185B04FF0BA
:10155000FF3080461048007810B91448066801E052
:101560004FF480364FF0200443E00E48806B40F08B
:1015700045000C4988634FF0000001AB4FF00102B9
:10158000314600904FF00700FFF7D9FA05467DB1CC
:101590004FF0FF30804620E028000010C4C00F400C
:1015A00000C00F4000000C40A0C10F4024000010FC
:1015B000019810F4807F03D16FF0040080460CE0A6
:1015C0000198C0F34320032803D06FF00300804646
:1015D00003E0002005B0BDE8F0814FF000000746B1
:1015E00002E007F101000746202FFAD3A4F1010021
:1015F0000446002CB9D14046ECE72DE9F04185B016
:1016000005464FF0FF3080464FF02000074637E098
:10161000F948806B40F04500F74988634FF00000BF
:1016200001AB4FF00102294600904FF01000FFF788
:1016300086FA04461CB14FF0FF30804614E0019852
:1016400010F4807F03D16FF0040080460CE0019815
:10165000C0F34320042803D06FF00300804603E06A
:10166000002005B0BDE8F0814FF00000064602E022
:1016700006F101000646202EFAD3A7F10100074625
:10168000002FC5D14046ECE7DC4800687047F0B554
:1016900085B04FF0FF3007464FF0200006462BE0A4
:1016A00040F2FF70D44988634FF0000001AB4FF067
:1016B0000102014600904FF00C00FFF740FA04468B
:1016C0001CB14FF0FF3007460AE0019810F4807F0C
:1016D00003D16FF00400074602E0002005B0F0BD22
:1016E0004FF00000054602E005F101000546202DFF
:1016F000FAD3A6F101000646002ED1D13846EDE717
:101700002DE9F04785B0074688464FF0FF30824606
:10171000B8F1010F02D94FF0190601E04FF0180699
:101720004FF0200437E040F2FF70B34988634FF078
:10173000000000904FEA4720014601AB4FF0010244
:101740003046FFF7FCF905461DB14FF0FF308246E9
:1017500014E00198C0F3002018B96FF0040082462D
:101760000CE00198C0F34320042803D06FF003007D
:10177000824603E0002005B0BDE8F0874FF000008E
:10178000814602E009F101008146B9F1200FF9D349
:10179000A4F101000446002CC5D15046EBE72DE929
:1017A000F04185B005464FF0FF3080464FF02000F5
:1017B000074637E040F2FF708F4988634FF0000022
:1017C00000904FEA4520014601AB4FF001024FF077
:1017D0001100FFF7B4F904461CB14FF0FF3080460A
:1017E00014E0019810F4807F03D16FF0040080466C
:1017F0000CE00198C0F34320042803D06FF00300ED
:10180000804603E0002005B0BDE8F0814FF0000005
:10181000064602E006F101000646202EFAD3A7F1A3
:1018200001000746002FC5D14046ECE72DE9F047FF
:1018300085B0074688464FF0FF308246B8F1010F69
:1018400002D94FF0120601E04FF011064FF02004CC
:1018500037E040F2FF70684988634FF00000009065
:101860004FEA4720014601AB4FF001023046FFF737
:1018700066F905461DB14FF0FF30824614E001982D
:1018800010F4807F03D16FF0040082460CE00198D1
:10189000C0F34320042803D06FF00300824603E026
:1018A000002005B0BDE8F0874FF00000814602E05F
:1018B00009F101008146B9F1200FF9D3A4F101002B
:1018C0000446002CC5D15046EBE72DE9F04307460E
:1018D000884615464FF0000081464948076040F2AF
:1018E000FF70454988634FF00000C862044602E07B
:1018F00004F101000446102CFAD3FFF77CF928B15B
:10190000FFF7C5FE4FF0FF30BDE8F0834FF48030A5
:10191000394948624FF4007088624FF0010037493E
:101920000860FFF738F829464046FFF7E9FE10B196
:101930004FF0FF30E8E74FF0000605E049F0910076
:10194000814606F101000646AE42F7D32A48C0F8A8
:101950002C904FF00000044602E004F10100044620
:10196000102CFAD30020CFE72DE9F0430746884634
:1019700015464FF0000081462248076040F2FF7094
:101980001D4988634FF00000C862044602E004F17C
:1019900001000446102CFAD3FFF72DF928B1FFF708
:1019A00076FE4FF0FF30BDE8F083FFF706F84FF406
:1019B0008030114948624FF4007088624FF0010096
:1019C0000E49086029464046FFF730FF10B14FF03E
:1019D000FF30E8E74FF0000605E049F0930081464C
:1019E00006F101000646AE42F7D30348C0F82C903A
:1019F0004FF0000004460AE000000C401000001008
:101A0000140000101800001004F101000446102C0E
:101A1000FAD30020C7E74FF00001054A11600846DD
:101A200002E000F101010846FF28FAD970470000E2
:101A300000000C4013B504464FF001031A4601A9FB
:101A4000204600F0C4FD1CBD38B504464FF0000030
:101A500000904FF001031A466946204600F01AFE36
:101A60009DF8000038BD70B506460D462C4606E0D0
:101A70002278601C044611463046FFF7DBFF2078D1
:101A80000028F5D170BD2DE9FF4F83B00C461546F7
:101A90001E464FF0000002900190002D03DC3060E4
:101AA00007B0BDE8F08F4FF00009012C02D14FF0D4
:101AB000100005E014B94FF00A0001E04FF00000FB
:101AC000C7B21FB94FF000003060E9E74FF00008DF
:101AD00096E04FF00100019003461A4602A90398D0
:101AE00000F0D8FD9DF80800302809DB9DF80800BB
:101AF000392805DC9DF80800A0F13000834640E05D
:101B0000012C3BD14FF0100007469DF808006128DA
:101B100011D008DCA0F1410006282AD2DFE800F04D
:101B20000C11161B20256238052822D2DFE800F0B0
:101B3000080D12171C0000BF4FF00A0083461CE07E
:101B400000BF4FF00B00834617E000BF4FF00C00C2
:101B5000834612E000BF4FF00D0083460DE000BF4A
:101B60004FF00E00834608E000BF4FF00F008346A1
:101B700003E04FF00000019000BF02E04FF00000D2
:101B800001904FF0010000900198B8B924B9F3A179
:101B90000398FFF768FF05E0012C03D1FA49039889
:101BA000FFF761FF09F101008146B9F10A0F27D360
:101BB000F6A10398FFF757FF002071E79DF8081082
:101BC0000398FFF737FF012D03D128460746009001
:101BD0000CE04FF00100824606E000987843009048
:101BE0000AF10100C0B28246AA45F6DB00980BFB61
:101BF00000FB08EB0B008046A5F10100C0B20546D2
:101C0000002D3FF766AFC6F80080012048E770B5A9
:101C100004460D4629462046FFF725FFE7A120464A
:101C2000FFF721FF70BD2DE9F04105460C464FF04E
:101C30000A0094FBF0F100FB1140C0B206464FF0E1
:101C40000A0094FBF0F04FF00A0190FBF1F201FB67
:101C50001200C0B207464FF0640094FBF0F090FB16
:101C6000F1F201FB1200C0B2804608F13000C0B2B0
:101C700001462846FFF7DEFE07F13000C0B20146FC
:101C80002846FFF7D7FE06F13000C0B201462846CD
:101C9000FFF7D0FEBDE8F0812DE9F04705460C4680
:101CA0004FF00A0094FBF0F100FB1140C0B2064671
:101CB0004FF00A0094FBF0F04FF00A0190FBF1F2B4
:101CC00001FB1200C0B207464FF0640094FBF0F035
:101CD00090FBF1F201FB1200C0B280464FF47A7023
:101CE00094FBF0F090FBF1F201FB1200C0B28146D0
:101CF00042F2107094FBF0F090FBF1F201FB120045
:101D0000C0B282460AF13000C0B201462846FFF751
:101D100091FE09F13000C0B201462846FFF78AFE65
:101D200008F13000C0B201462846FFF783FE07F1F4
:101D30003000C0B201462846FFF77CFE06F13000B5
:101D4000C0B201462846FFF775FEBDE8F0872DE9D1
:101D5000F34F83B00C464FF00A00B4FBF0F100FBE8
:101D60001140C0B205464FF00A00B4FBF0F04FF04E
:101D70000A01B0FBF1F201FB1200C0B206464FF0BF
:101D80006400B4FBF0F0B0FBF1F201FB1200C0B252
:101D900007464FF47A70B4FBF0F0B0FBF1F201FBB0
:101DA0001200C0B2804642F21070B4FBF0F0B0FBFB
:101DB000F1F201FB1200C0B281468148B4FBF0F0A1
:101DC000B0FBF1F201FB1200C0B282467D48B4FBC9
:101DD000F0F0B0FBF1F201FB1200C0B283467A488A
:101DE000B4FBF0F0B0FBF1F201FB1200C0B20290C4
:101DF0007648B4FBF0F0B0FBF1F201FB1200C0B288
:101E000001907248B4FBF0F0B0FBF1F201FB12005C
:101E1000C0B20090009800F13000C0B201460398B3
:101E2000FFF708FE01983030C0B201460398FFF773
:101E300001FE02983030C0B201460398FFF7FAFD68
:101E40000BF13000C0B201460398FFF7F3FD0AF131
:101E50003000C0B201460398FFF7ECFD09F13000F5
:101E6000C0B201460398FFF7E5FD08F13000C0B2AB
:101E700001460398FFF7DEFD07F13000C0B20146CE
:101E80000398FFF7D7FD06F13000C0B20146039872
:101E9000FFF7D0FD05F13000C0B201460398FFF70F
:101EA000C9FD05B0BDE8F08F2DE9F04107460D46AC
:101EB0004FF00100064600BF4FEA860045FA00F0E9
:101EC00000F00F04092C02DD04F1370001E004F1F9
:101ED0003000C1B23846FFF7ADFD3000A6F1010178
:101EE000C9B20E46E8D1BDE8F0812DE9F0410746C0
:101EF0000D4637A13846FFF7B6FD4FF00100064604
:101F000000BF4FEA860045FA00F000F00F04092CEC
:101F100002DD04F1370001E004F13000C1B23846BF
:101F2000FFF788FD3000A6F10101C9B20E46E8D1E5
:101F3000BDE8F0812DE9F04107460D464FF0030062
:101F4000064600BF4FEA860045FA00F000F00F0495
:101F5000092C3FDD04F137003EE00000506C656164
:101F6000736520656E7465722061206368617220FC
:101F700066726F6D2027302720746F202739272144
:101F800021210D0A00000000483200005265616303
:101F900068206C696D69746174696F6E206F66206A
:101FA00072652D74726965732E2052657475726E38
:101FB000204641494C45440D0A0000000A0D00002E
:101FC000A086010040420F008096980000E1F505D0
:101FD0003078000004F13000C1B23846FFF72AFD26
:101FE0003000A6F10101C9B20E46ABD1BDE8F081C7
:101FF0002DE9F04107460D46AFF22C013846FFF7B8
:1020000032FD4FF00300064600BF4FEA860045FA56
:1020100000F000F00F04092C02DD04F1370001E0AC
:1020200004F13000C1B23846FFF704FD3000A6F1DC
:102030000101C9B20E46E8D1BDE8F0812DE9F041B9
:1020400007460D464FF00700064600BF4FEA8600E0
:1020500025FA00F000F00F04092C02DD04F137002E
:1020600001E004F13000C1B23846FFF7E3FC300074
:10207000A6F10101C9B20E46E8D1BDE8F0812DE913
:10208000F04107460D46AFF2B8013846FFF7EBFCCA
:102090004FF00700064600BF4FEA860025FA00F021
:1020A00000F00F04092C02DD04F1370001E004F117
:1020B0003000C1B23846FFF7BDFC3000A6F1010187
:1020C000C9B20E46E8D1BDE8F0811CB501220A2153
:1020D0000020FEF705FB01220B210020FEF700FB8C
:1020E000684600F05AFA4FF4E13000906946204803
:1020F00000F05EF901211E4800F005FAAFF2996088
:102100001C490860AFF2F9401B490860AFF2DB6080
:102110001A490860AFF22D2019490860AFF22F105C
:1021200018490860AFF2A90017490860AFF287208C
:1021300016490860AFF2032015490860AFF203109A
:1021400014490860AFF2215013490860AFF2B7405C
:1021500012490860AFF2094011490860AFF21770E8
:1021600010490860AFF2E1600F4908601CBD000033
:10217000008009403C0000104000001044000010A6
:1021800054000010580000105C00001060000010A7
:102190006400001068000010480000104C0000109F
:1021A000500000106C000010700000102DE9F04F7E
:1021B00093B080468B464FF000000A904FF001002C
:1021C000FDF7D9FF09904FF0FF3004904FF0000069
:1021D0000790069001460C460D464FF001008146DF
:1021E0005AE04FF0000008904CE00898484400FB8B
:1021F0000BF0029000211C220998CDE90D10FEF78A
:1022000055F80022A0FB093C01FB09C100FB0210AC
:10221000CDE9003000239DE80700FEF715F80646DB
:102220000F4605964FF0200230463946CDE90B7631
:10223000FEF74BF882460598B0F1004F06D9059895
:10224000C0F1000005900AF101008246BAF1000FCA
:1022500002D0BAF5803F00D910E0DDE904108842D1
:102260000BD2059804904FF000055446089807904B
:10227000CDF81890049800B907E000BF089800F165
:102280000100089008984845AFD300BF049800B9F2
:1022900005E009F101008146B9F10F0FA1D900BF96
:1022A000002184EA01006940084302D113B0BDE86F
:1022B000F08F09980009069900FB01FC0846079970
:1022C00008440021A0FB042301FB043100FB05109E
:1022D0000346CDE9002060460021FDF7B5FF0390DD
:1022E0000398834504D90398ABEB0000049003E006
:1022F0000398A0EB0B0004904FF06401049800FBDE
:1023000001F0B0FBFBF00490049803284ED2F8488B
:10231000804524D198F80C0040F0800088F80C002B
:102320004FF0080220462946CDE90F54FDF7CDFFB6
:1023300088F8040088F8004098F80C0000F07F004E
:1023400088F80C004FF0F001069801EA0010079998
:1023500001F00F0140EA0100C8F8280023E098F8D6
:102360000C0040F0800088F80C004FF00802204676
:102370002946CDE91154FDF7A8FF88F8040088F834
:10238000004098F80C0000F07F0088F80C004FF037
:10239000F001069801EA0010079901F00F0140EAE8
:1023A000010088F828004FF001000A900A987DE7A4
:1023B00070B504460E46CF48844203D1012108205F
:1023C000FDF7F0FECA48844203D101211020FDF739
:1023D000E9FEC948844203D101210806FDF7E2FE67
:1023E000C648844203D101214806FDF7DBFE4FF0C9
:1023F000070020724FF00000207200E02578207D59
:1024000010F0010FFAD14FF0800084F8300000BFC7
:10241000207D10F0200FFBD04FF0000084F830003A
:1024200060602073206284F84C0084F8540084F8C3
:102430005000207D0546AE48844205D14FF0000093
:102440002074207E054603E04FF0000084F824004D
:10245000306801462046FFF7A9FEA548844204D112
:10246000207B00F0C000054603E0207B00F0C000A8
:102470000546707930B1012806D0022808D003281B
:102480000AD10AE000BF0CE045F00100054608E073
:1024900045F00200054604E000BF45F00300054694
:1024A00000BF00BF3079E0B145F008000546307943
:1024B000012806D0022806D0032808D004280ED10F
:1024C00009E000BF0CE045F01000054608E045F0CB
:1024D0002000054604E045F03000054600E000BF5E
:1024E00000BFB07930B1012803D145F004000546A2
:1024F00001E000BF00BF00BF7D48844201D12573C9
:1025000000E0257370BD012910D1794A904206D1AF
:1025100090F8302042F0800280F8302016E090F8E9
:10252000302042F0800280F830200FE0704A904264
:1025300006D190F830204FF0000280F8302005E0FE
:1025400090F830204FF0000280F83020704710B52E
:1025500004464FF000012046FFF7D5FF654884424E
:1025600003D100210820FDF71DFE6148844203D1FC
:1025700000211020FDF716FE5F48844204D100219F
:102580004FF08070FDF70EFE5C48844204D10021BC
:102590004FF00070FDF706FE10BD4FF416510160BC
:1025A0004FF0030141714FF00001017181717047DB
:1025B0004F4A904201D1017000E00170704701461E
:1025C0004B48814201D1087870470878FCE72DE933
:1025D000F04F0746894692469B464E465346BBF10E
:1025E000010F30D14FF000042AE04FF0FF30804659
:1025F00006E0B8F1000F00D106E0A8F10100804626
:10260000387D10F0200FF4D000BFB8F1000F00D1DA
:1026100018E04FF0100005460FE03278701C0646B7
:1026200011463846FFF7C4FFA5F101000546A3F1A6
:102630000100034604F1010004460DB1002BECD16A
:10264000002BD2D123E04FF000041DE003B91DE0C0
:10265000387D10F0200F00D118E04FF01000054633
:102660000FE03278701C064611463846FFF7A0FF8F
:10267000A3F101000346A5F10100054604F10100A4
:1026800004460DB1002BECD1002BDFD100BF20465A
:10269000BDE8F08F2DE9F04305460F469046994678
:1026A0003C464346B9F1010F2AD14FF000021CE02D
:1026B0004FF0FF30064604E006B906E0A6F101003F
:1026C0000646287D10F0010FF6D000BF06B90EE0D7
:1026D0002846FFF774FF207004F101000446A3F1BF
:1026E0000100034602F101000246002BE0D11FE089
:1026F0000000014000C000400080094000C00940C7
:102700004FF0000211E0287D10F0010F00D10EE023
:102710002846FFF754FF207004F10100044602F13F
:1027200001000246A3F101000346002BEBD100BFDC
:102730001046BDE8F083FB49884204D1017B41F09B
:102740004001017303E0017B41F0400101737047D8
:1027500030B50B46072B1AD2DFE803F004070A0D49
:10276000101316004FF0010111E04FF002010EE0CE
:102770004FF004010BE04FF0080108E04FF080013A
:1027800005E04FF4807102E04FF4007100BF00BF1C
:10279000012A0CD1E34CA04204D1446844EA01046C
:1027A000446018E0446844EA0104446013E0DD4CEE
:1027B000A04208D1446840F28F3525EA010504EAB9
:1027C0000504446007E0446840F2073525EA010546
:1027D00004EA0504446030BD0146D248814201D17B
:1027E000007D7047087DFCE70146886840F2CF32E3
:1027F00000EA020070470146087D10F0400F01D04A
:10280000002070470120FCE702464FF00003184605
:1028100040F001031846CB7833B1012B06D0022BD0
:1028200008D0032B0AD10AE000BF0CE040F04003BF
:10283000184608E040F08003184604E000BF40F06E
:10284000C003184600BF00BF4B78012B02D140F0F7
:10285000040318460B78012B02D140F002031846FE
:102860008B78012B02D140F008031846AD4B9A42F9
:1028700003D100F0CF03137202E000F0CF03137214
:1028800070474FF000018170C1704FF0010101707D
:102890004170704710B50B464FF000042146012AE5
:1028A0000BD11C78012C02D141F0020421465C7846
:1028B000012C02D141F0040421469A4CA04218D1C7
:1028C000012A12D1047B44F0800404734FF0000409
:1028D00004700471047B24F0800404734FF010042E
:1028E000846241F0010404621CE04FF000040462C1
:1028F00018E0012A13D1047B44F0800404734FF0E4
:10290000000404700471047B24F0800404734FF00D
:10291000100480F8284041F00104046202E04FF006
:102920000004046210BD7F4A904204D1026A42EA68
:102930000102026203E0026A42EA01020262704797
:10294000012906D190F8242042F0020280F82420C8
:1029500006E029B990F8242002F03D0280F82420F6
:102960007047012906D190F8242042F0010280F836
:10297000242005E090F8242002F03E0280F8242074
:10298000704710B54FEA41744FEA9464234690F8BB
:10299000244024F03804224643F0040444EA0204AC
:1029A000224602F03F0480F8244010BD30B54FF0BD
:1029B0000004234611B1012908D103E04FF00104BE
:1029C000234604E04FF00204234600E000BF00BFAE
:1029D000012A04D1047C44EA0304047407E0047C63
:1029E0004FF0F30525EA030504EA0504047430BD3D
:1029F00030B50B4623B1012B05D0022B09D105E0E0
:102A00004FF0100106E04FF0400103E04FF080016D
:102A100000E000BF00BF012A04D1047C44EA0104A5
:102A2000047407E0047C4FF0F30525EA010504EA8D
:102A30000504047430BD0146087E70474FF0000362
:102A40001A46CB78012B14D142F010031A464B7969
:102A5000012B02D142F020031A460B79012B05D13C
:102A6000304B984202D142F008031A46CB7980F8E5
:102A700054300B78012B02D142F001031A468B78B7
:102A8000012B05D142F004031A468B7980F85030AF
:102A90004B7813B942F002031A4602F03F0380F864
:102AA0004C30037B43F0380303737047012906D190
:102AB00090F84C2022F0020280F84C2005E090F8BB
:102AC0004C2042F0020280F84C2070472DE9F0477C
:102AD0000446894692461F46AFB1257BA84628F09A
:102AE0001000804684F80C804FF00103524649469E
:102AF0002046FFF76CFD064600BF207D10F0400F1A
:102B0000FBD025730BE00123524649462046FFF7D0
:102B10005EFD064600BF207D10F0400FFBD0304622
:102B2000BDE8F0870000014013B504464FF00103F3
:102B30001A4601A92046FFF7C9FF1CBD70B504461F
:102B40000D4616464FF00003324629462046FFF751
:102B5000BDFF70BD8CB04FF0000006460AE0C6F322
:102B60008700C34988554FF00000C249885506F1D7
:102B700001000646B6F5007FF1D3FFF7A6FABEA125
:102B8000BE48BF4A12689047BE49BC48BE4A126858
:102B90009047B9A1B948BA4A126890470020FEF799
:102BA0004CFB30B1B9A1B548B54A1268904700BF97
:102BB000FEE7FEF7EAFB07463846B7F1FF3F0FD0C6
:102BC00010B1012813D105E0B4A1AC48AC4A126899
:102BD00090470CE0BAA1A948A94A1268904706E0BC
:102BE000C1A1A648A64A1268904700BFFEE700BFF1
:102BF00005A8FEF7CEFB30B1C6A1A048A04A1268D6
:102C0000904700BFFEE7C7A19C489F4A12689047C3
:102C1000099801469948CA4A1268904796A1974870
:102C2000974A12689047FEF702FC04465CB1C5A1C2
:102C30009248954A1268904721469048C04A1268C7
:102C4000904700BFFEE7FEF73CFC8046C7A18B48DB
:102C50008D4A1268904741468848B94A12689047A1
:102C600085A18648864A1268904701A8FEF72CFC89
:102C700004465CB1C6A18148834A12689047214648
:102C80007E48AF4A1268904700BFFEE7C7A17B4865
:102C90007B4A12689047CCA178487B4A12689047DB
:102CA000019801467548A64A1268904772A1734878
:102CB000734A12689047C6A17048734A12689047D9
:102CC000029801466D489E4A126890476AA16B4877
:102CD0006B4A12689047C0A168486B4A12689047D7
:102CE000039801466548964A1268904762A1634876
:102CF000634A12689047BAA16048634A12689047D5
:102D0000049801465D488E4A126890475AA15B4874
:102D10005B4A12689047FEF717FC04465CB1B2A10B
:102D20005648594A1268904721465448844A1268C6
:102D3000904700BFFEE7B5A15048534A126890473C
:102D4000BFB90220FEF760F80120FEF701F958B183
:102D5000B9A14A484C4A1268904721464748784AE8
:102D60001268904700BFFEE7BCA14448464A12687B
:102D700090474FF40070FEF740FC04465CB1BCA1E4
:102D80003E48414A1268904721463C486C4A1268C6
:102D9000904700BFFEE7C0A138483B4A1268904701
:102DA000012200213248FEF790FD04465CB1C4A127
:102DB0003248354A1268904721463048604A1268C6
:102DC000904700BFFEE700BFFEF75EFC0028FBD186
:102DD000C4A12A482C4A12689047012200212548A4
:102DE000FEF7C2FD04465CB1C6A12448264A12681B
:102DF000904721462148524A1268904700BFFEE79B
:102E000000BFFEF741FC0028FBD1C6A11B481E4AAB
:102E1000126890474FF000000446054616E015483A
:102E2000405D1349495D88420DD0C6A11348164A3A
:102E30001268904729461148414A126890474FF05E
:102E4000FF30044605E005F101000546B5F5007FB9
:102E5000E5D300BF24B9C5A108480B4A12689047C2
:102E6000CEA10648084A1268904700BFFEE700005E
:102E70004C0200104C0400100000000000800940CB
:102E800040000010740000103C0000104D43495FEA
:102E9000496E6974204641494C454400437572723D
:102EA000656E746C792074686520534420434152E8
:102EB00044206973206265696E67207573656400DC
:102EC00043757272656E746C7920746865204D4D1F
:102ED000432043415244206973206265696E672034
:102EE00075736564000000004E6F2043415244201A
:102EF0006973206265696E6720706C7567676564C9
:102F00002C20506C6561736520636865636B2121BB
:102F10002100000047657420434944204661696CE4
:102F200065640000092D2050726F6475637420532E
:102F3000657269616C204E756D6265723A200000A1
:102F40005C00001053657420436172642041646426
:102F500072657373206973204641494C45442C20A7
:102F600072657456616C203D20000000536574202A
:102F7000434152442041444452455353204F4B2037
:102F8000776974682061646472657373200000005F
:102F900047657420435344204641494C45442C2006
:102FA00072657456616C203D2000000047657420F6
:102FB000436172642053706563696669632044618C
:102FC0007461204F6B3A0000095B305D203D2000AA
:102FD000095B315D203D2000095B325D203D200012
:102FE000095B335D203D2000436172642053656CB2
:102FF000656374696F6E206973204641494C45448E
:103000002C2072657456616C203D2000436172640F
:1030100020686173206265656E2073656C656374FA
:103020006564207375636365737366756C6C792171
:1030300021210A0D000000005365742042616E6476
:103040005769647468206973204641494C45442C93
:103050002072657456616C203D2000005345542059
:1030600042616E6477696474682121210A0D000051
:1030700053657420426C6F636B204C656E67746897
:10308000206973204641494C45442C207265745692
:10309000616C203D20000000426C6F636B204C652A
:1030A0006E67746820697320534554207375636399
:1030B00065737366756C6C792121210A0D0000001F
:1030C000577269746520426C6F636B206973204688
:1030D00041494C45442C2072657456616C203D205A
:1030E00000000000577269746520426C6F636B20AA
:1030F0007375636365737366756C6C792121210A3E
:103100000D0000005265616420426C6F636B2069A2
:1031100073204641494C45442C2072657456616CBD
:10312000203D20005265616420426C6F636B207308
:1031300075636365737366756C6C792121210A0D63
:10314000000000004552524F52206F6E20526561C0
:103150006420616E64205772697465206174207008
:103160006F736974696F6E3A2000000043484543ED
:103170004B494E4720697320646F6E65212052656C
:10318000616420616E6420577269746520636F7298
:10319000726563742121210A0D0000000A0D3E3E74
:1031A0003E204558414D504C455320697320454EB3
:1031B0004445442000000000064C074D06E0E0684E
:1031C00040F0010394E8070098471034AC42F6D36E
:1031D000FCF78CFFA4320000C432000070B501EB94
:1031E000020410F8015B15F0070301D110F8013B50
:1031F0002A1106D110F8012B03E010F8016B01F839
:10320000016B5B1EF9D12B0705D40023521E0FD48E
:1032100001F8013BFAE710F8013B02F10202A1EBD1
:10322000030303E013F8015B01F8015B521EF9D5BB
:10323000A142D6D3002070BD002001E001C1121FC1
:10324000002AFBD170470000506C656173652065F2
:103250006E746572206120636861722066726F6DA2
:103260002027302720746F202739272C20616E6497
:103270002027612F41272C2027622F42272C2063F3
:103280002F43272C2027642F44272C2027652F45E8
:103290002720616E642027662F46272121210D0AF1
:1032A00000000000C4320000000000104C020000CA
:1032B000DC310000FC3300004C020010040600006A
:1032C0003832000011140E27073C87930304546C16
:1032D000DC02124012201A500401570A4D2A01182C
:1032E0001D0A0D2048656C6C6F204E5850205365A8
:1032F0006D69636F6E647563746F7273201C181848
:103300004D434920526561642057726974652045B8
:1033100078616D706C653A1B1C09202D1E580E5586
:103320003A204C5043313737785F3878161C436F5A
:103330007222580E41524D20434F525445582D4D44
:10334000331A1D554152541F38186D6D756E6963DF
:103350006174696F6E693A203131353230302062E4
:1033600070714F546869732065671A200B182D75AA
:1033700073656420746F20746573742074686520AD
:103380004D756C74696D6564696120436172642078
:10339000496E746572666163652028AD2F292066C9
:1033A000756E635A1A2E4D2B4974431B61624B286C
:1033B0000E7472616E736665722064617461513857
:1033C000086F722066726F6D542A6349180B646926
:1033D000726563746C7920765B29F8180B46494650
:1033E0004F207265676973620C4D0A0D2A01530AFA
:0C33F0000D1240122012500200200000BC
:04000005000000E512
:00000001FF
